:100000000C942A000C9434000C9434000C943400AA
:100010000C9434000C9434000C9434000C94340090
:100020000C9434000C9434000C9434000C94340080
:100030000C9434000C9434000C9434000C94340070
:100040000C9434000C9434000C9434000C94340060
:100050000C94340011241FBECFE5D8E0DEBFCDBF25
:100060000E94F0000C9401010C9400008230B9F061
:1000700058F48115E9F087B321E001C0220F6A9599
:10008000EAF7822B87BB08958330D9F481B321E04E
:1000900001C0220F6A95EAF7822B81BB089584B3D1
:1000A00021E001C0220F6A95EAF7822B84BB0895F4
:1000B0008AB321E001C0220F6A95EAF7822B8ABB3E
:1000C000089508954130F9F0E8F4823009F446C00B
:1000D00068F4811509F44CC028B381E001C0880F91
:1000E0006A95EAF78095822388BB0895833009F0EA
:1000F0004AC022B381E001C0880F6A95EAF7809573
:10010000822382BB08958230B9F058F48115E9F05A
:1001100088B321E001C0220F6A95EAF7822B88BBE1
:100120000895833079F582B321E001C0220F6A95EA
:10013000EAF7822B82BB089585B321E001C0220F2C
:100140006A95EAF7822B85BB08958BB321E001C045
:10015000220F6A95EAF7822B8BBB089525B381E0C5
:1001600001C0880F6A95EAF78095822385BB0895C0
:100170002BB381E001C0880F6A95EAF7809582234E
:100180008BBB0895089508958230B9F058F4811515
:10019000E9F088B321E001C0220F6A95EAF78227CF
:1001A00088BB08958330D9F482B321E001C0220FC7
:1001B0006A95EAF7822782BB089585B321E001C0E2
:1001C000220F6A95EAF7822785BB08958BB321E059
:1001D00001C0220F6A95EAF782278BBB0895089524
:1001E00087B391E0816087BB88B3892788BB2FEFF5
:1001F00039E688E1215030408040E1F700C000003E
:06020000F3CFF894FFCFDC
:00000001FF
