:100000000C942A000C943F000C943F000C943F0089
:100010000C943F000C943F000C943F000C943F0064
:100020000C943F000C943F000C943F000C943F0054
:100030000C943F000C943F000C943F000C943F0044
:100040000C943F000C943F000C943F000C943F0034
:100050000C943F0011241FBECFE5D8E0DEBFCDBF1A
:1000600010E0A0E6B0E0EEEFF1E002C005900D92E6
:10007000AA36B107D9F70E94E9000C94FD000C9450
:100080000000823059F028F4811559F08FEF87BBBA
:100090000895833049F48FEF81BB08958FEF84BBBF
:1000A00008958FEF8ABB089508956A30A0F48230D6
:1000B00099F048F48115B9F0E62FF0E0E05AFF4FCF
:1000C000808188BB08958330A9F4E62FF0E0E05AE0
:1000D000FF4F808182BB0895E62FF0E0E05AFF4F8A
:1000E000808185BB0895E62FF0E0E05AFF4F8081C4
:1000F0008BBB08950895461750F16A30E0F48230C2
:1001000039F1833008F04EC08115B9F1E62FF0E0E7
:10011000E05AFF4F908198BB2FEF39E698E12150CC
:1001200030409040E1F700C000006F5F461778F064
:100130006A3039F76AE02FEF39E698E12150304014
:100140009040E1F700C000006F5F4617B0F60895D9
:10015000E62FF0E0E05AFF4F908195BB2FEF39E694
:1001600098E1215030409040E1F700C000006F5FFF
:10017000461768F36A3061F7DDCFE62FF0E0E05A0A
:10018000FF4F90819BBB2FEF39E698E12150304023
:100190009040E1F700C000006F5F4617C0F26A3080
:1001A00061F7C8CF09F0B8CFE62FF0E0E05AFF4F73
:1001B000908192BB2FEF39E698E12150304090407A
:1001C000E1F700C000006F5F461708F26A3061F780
:1001D000B1CF8FEF8ABBE0E6F0E081918BBB2FEFD0
:1001E00089E698E1215080409040E1F700C000008E
:0E01F00020E0EA36F20789F7EECFF894FFCF51
:0A01FE003F065B4F666D7D077F6FC3
:00000001FF
